{
  "_format": "hh-sol-artifact-1",
  "contractName": "Lottery",
  "sourceName": "contracts/Lottery.sol",
  "abi": [
    {
      "inputs": [],
      "stateMutability": "nonpayable",
      "type": "constructor"
    },
    {
      "inputs": [],
      "name": "enter",
      "outputs": [],
      "stateMutability": "payable",
      "type": "function"
    },
    {
      "inputs": [],
      "name": "getPlayers",
      "outputs": [
        {
          "internalType": "address[]",
          "name": "",
          "type": "address[]"
        }
      ],
      "stateMutability": "view",
      "type": "function"
    },
    {
      "inputs": [],
      "name": "manager",
      "outputs": [
        {
          "internalType": "address",
          "name": "",
          "type": "address"
        }
      ],
      "stateMutability": "view",
      "type": "function"
    },
    {
      "inputs": [],
      "name": "pickWinner",
      "outputs": [],
      "stateMutability": "nonpayable",
      "type": "function"
    },
    {
      "inputs": [
        {
          "internalType": "uint256",
          "name": "",
          "type": "uint256"
        }
      ],
      "name": "players",
      "outputs": [
        {
          "internalType": "address",
          "name": "",
          "type": "address"
        }
      ],
      "stateMutability": "view",
      "type": "function"
    }
  ],
  "bytecode": "0x608060405234801561001057600080fd5b50336000806101000a81548173ffffffffffffffffffffffffffffffffffffffff021916908373ffffffffffffffffffffffffffffffffffffffff160217905550610a30806100606000396000f3fe60806040526004361061004a5760003560e01c8063481c6a751461004f5780635d495aea1461007a5780638b5b9ccc14610091578063e97dcb62146100bc578063f71d96cb146100c6575b600080fd5b34801561005b57600080fd5b50610064610103565b60405161007191906104ef565b60405180910390f35b34801561008657600080fd5b5061008f610127565b005b34801561009d57600080fd5b506100a661029f565b6040516100b391906105c8565b60405180910390f35b6100c461032d565b005b3480156100d257600080fd5b506100ed60048036038101906100e89190610625565b6103db565b6040516100fa91906104ef565b60405180910390f35b60008054906101000a900473ffffffffffffffffffffffffffffffffffffffff1681565b60008054906101000a900473ffffffffffffffffffffffffffffffffffffffff1673ffffffffffffffffffffffffffffffffffffffff163373ffffffffffffffffffffffffffffffffffffffff16146101b5576040517f08c379a00000000000000000000000000000000000000000000000000000000081526004016101ac906106d5565b60405180910390fd5b6000600180549050116101fd576040517f08c379a00000000000000000000000000000000000000000000000000000000081526004016101f490610741565b60405180910390fd5b600061020761041a565b905060006001828154811061021f5761021e610761565b5b9060005260206000200160009054906101000a900473ffffffffffffffffffffffffffffffffffffffff1690508073ffffffffffffffffffffffffffffffffffffffff166108fc479081150290604051600060405180830381858888f19350505050158015610292573d6000803e3d6000fd5b5061029b610460565b5050565b6060600180548060200260200160405190810160405280929190818152602001828054801561032357602002820191906000526020600020905b8160009054906101000a900473ffffffffffffffffffffffffffffffffffffffff1673ffffffffffffffffffffffffffffffffffffffff16815260200190600101908083116102d9575b5050505050905090565b662386f26fc100003411610376576040517f08c379a000000000000000000000000000000000000000000000000000000000815260040161036d90610802565b60405180910390fd5b6001339080600181540180825580915050600190039060005260206000200160009091909190916101000a81548173ffffffffffffffffffffffffffffffffffffffff021916908373ffffffffffffffffffffffffffffffffffffffff160217905550565b600181815481106103eb57600080fd5b906000526020600020016000915054906101000a900473ffffffffffffffffffffffffffffffffffffffff1681565b60006001805490504442600160405160200161043893929190610961565b6040516020818303038152906040528051906020012060001c61045b91906109c9565b905090565b6001600061046e9190610470565b565b508054600082559060005260206000209081019061048e9190610491565b50565b5b808211156104aa576000816000905550600101610492565b5090565b600073ffffffffffffffffffffffffffffffffffffffff82169050919050565b60006104d9826104ae565b9050919050565b6104e9816104ce565b82525050565b600060208201905061050460008301846104e0565b92915050565b600081519050919050565b600082825260208201905092915050565b6000819050602082019050919050565b61053f816104ce565b82525050565b60006105518383610536565b60208301905092915050565b6000602082019050919050565b60006105758261050a565b61057f8185610515565b935061058a83610526565b8060005b838110156105bb5781516105a28882610545565b97506105ad8361055d565b92505060018101905061058e565b5085935050505092915050565b600060208201905081810360008301526105e2818461056a565b905092915050565b600080fd5b6000819050919050565b610602816105ef565b811461060d57600080fd5b50565b60008135905061061f816105f9565b92915050565b60006020828403121561063b5761063a6105ea565b5b600061064984828501610610565b91505092915050565b600082825260208201905092915050565b7f4f6e6c7920746865206d616e616765722063616e20706572666f726d2074686960008201527f7320616374696f6e000000000000000000000000000000000000000000000000602082015250565b60006106bf602883610652565b91506106ca82610663565b604082019050919050565b600060208201905081810360008301526106ee816106b2565b9050919050565b7f43616e2774207069636b2077696e6e6572206f66203020706c61796572730000600082015250565b600061072b601e83610652565b9150610736826106f5565b602082019050919050565b6000602082019050818103600083015261075a8161071e565b9050919050565b7f4e487b7100000000000000000000000000000000000000000000000000000000600052603260045260246000fd5b7f4d696e696d756d20726571756972656d656e74206f6620302e3031204574686560008201527f72206e6f742073656e7400000000000000000000000000000000000000000000602082015250565b60006107ec602a83610652565b91506107f782610790565b604082019050919050565b6000602082019050818103600083015261081b816107df565b9050919050565b6000819050919050565b61083d610838826105ef565b610822565b82525050565b600081549050919050565b600081905092915050565b60008190508160005260206000209050919050565b610877816104ce565b82525050565b6000610889838361086e565b60208301905092915050565b60008160001c9050919050565b600073ffffffffffffffffffffffffffffffffffffffff82169050919050565b60006108d56108d083610895565b6108a2565b9050919050565b60006108e882546108c2565b9050919050565b6000600182019050919050565b600061090782610843565b610911818561084e565b935061091c83610859565b8060005b8381101561095457610931826108dc565b61093b888261087d565b9750610946836108ef565b925050600181019050610920565b5085935050505092915050565b600061096d828661082c565b60208201915061097d828561082c565b60208201915061098d82846108fc565b9150819050949350505050565b7f4e487b7100000000000000000000000000000000000000000000000000000000600052601260045260246000fd5b60006109d4826105ef565b91506109df836105ef565b9250826109ef576109ee61099a565b5b82820690509291505056fea2646970667358221220873f9920f23b4576b66347814021d9dba2ded7bcba95b50465e75f52326e5e9764736f6c63430008090033",
  "linkReferences": {},
  "deployedLinkReferences": {}
}